:100000000C94BB010C946A0B0C94D8010C94D8018D
:100010000C94D8010C94D8010C94D8010C94D801FC
:100020000C94D8010C94D8010C94D8010C94D801EC
:100030000C94D8010C94D8010C94D8010C94D801DC
:100040000C94D8010C94D8010C9463040C948F0484
:100050000C94D8010C94D8010C94D8010C94D801BC
:100060000C94D8010C94D801040309040D0A4366CA
:10007000673A20307825303278000D0A4366673AB7
:1000800020307825303278000D0A2D2D2D2D2D2D84
:100090002D2D2D2D2D2D2D2D2D2D2D2D0D0A0D0A16
:1000A0006B6C617574652773204861636B53746969
:1000B000636B0D0A76302E303620286279206B6C07
:1000C00061757465290D0A3E00726C65646F6E007F
:1000D000726C65646F666600796C65646F6E00793A
:1000E0006C65646F666600676C65646F6E00676C54
:1000F00065646F666600757273740073696E740070
:10010000676473630067647461007364736300738E
:100110006474610065726474610065736474610085
:100120006572647363006573647363006572766EF1
:10013000006573766E0065726E0065736E006572A1
:10014000736E006573736E00657263766964006533
:1001500073637669640065726364696400657363E0
:1001600064696400746C6F7364736300746C6F73A0
:1001700064746100746C6F73766E00746C6F736E70
:1001800000746C6F73736E00746C6F736376696464
:1001900000746C6F73636469640065646366670010
:1001A00067766E00676E0067736E006763766964DA
:1001B0000067636469640073766E00736E00737326
:1001C0006E007363766964007363646964007474B9
:1001D00079650036050000C90038050000D0003EF2
:1001E000050000D80040050000DF003A050000E7E8
:1001F000003C050000EE0093090000F600C2070075
:1002000000FB003407000000017B070000050149E6
:100210000500000A01420500000F01390400001426
:1002200001BE0300001A014C0400002001D10300AC
:100230000026012E0400002C01B30300003101232D
:100240000400003601A80300003A01180400003E33
:10025000019D0300004301FE0300004801830300E9
:10026000004F01E40300005601690300005D013AFC
:1002700003100064013A0316006C013A0311007484
:10028000013A0312007B013A03130081013A03147F
:100290000088013A0315009101190300009A01FA40
:1002A000060000A001C7060000A40194060000A7F4
:1002B0000177060000AB015A060000B101320601C9
:1002C00000B7010A060100BB01E2050100BE01B34F
:1002D000050100C20184050100C80150050100CEDE
:1002E0000130782530347800307825303478004477
:1002F00049443D30782530327825303278005649EF
:10030000443D30782530327825303278002563003E
:100310002563002563000D0A00307825303258200F
:10032000000D0A0030782530325820000D0A0020D8
:100330002D00202B003E000D0A0045003E000D0A56
:1003400000455252000D0A000D0A3E000820080028
:1003500025630045464765666700202B2D2E30310A
:10036000323334353637383968006364696E6F70FC
:1003700073757858000011241FBECFEFD4E0DEBFA4
:10038000CDBF11E0A0E0B1E0E6E4F3E202C00590E9
:100390000D92A83BB107D9F713E0A8EBB1E001C07B
:1003A0001D92A136B107E1F70E94450B0C94A111F3
:1003B0000C940000E9E6F0E0808182608083E89A96
:1003C0008BE4809312028AE58093110208951F93B3
:1003D000DC01162F8091110284FF07C08091120268
:1003E00098E889278093120203C08AE5809311025E
:1003F000912FE3E1F2E08D9181939150E1F783E158
:1004000092E0612F0E94660B1C5F109311021F91F6
:1004100008951F93CF93DF9390912202935097FDFD
:100420009CC020911F0280911E028D3209F093C062
:10043000983009F090C0CCE0D0E0C21BD109CA5D71
:10044000DD4F83EC809306028AE5809300011092D1
:10045000B8018881807629F0CE010E94370A282FC2
:1004600068C09A8110920F028981882321F410922A
:10047000100222E057C0853019F49093230251C036
:100480008630D9F58B81813049F483E891E09093EF
:1004900021028093200280E022E12CC0823011F101
:1004A000833099F48A81882349F488E690E0909318
:1004B00021028093200280E424E01CC0813091F06E
:1004C000823081F08330A1F40DC0813249F487EA93
:1004D00091E0909321028093200280E429E00AC0F9
:1004E000823231F4CE010E94E609282F80E002C05A
:1004F00080E420E08093B8011CC0883021F421E022
:1005000085E292E011C0893019F49093250209C068
:100510008A3011F421E006C08B3019F48BE480930B
:10052000120220E08FE092E090932102809320025B
:1005300009C02F3F39F4888187FD2E8180E88093A0
:10054000B80106C08F81882319F48E81821708F0C4
:10055000822F80930101109222028091000184FF7A
:100560005AC0809101018F3F09F455C0182F89307E
:1005700008F018E0811B809301018091060298E841
:10058000892780930602112399F18091B80187FF92
:1005900009C087E092E0612F0E94A809182F8930D6
:1005A000A0F526C0209120023091210286FF0DC0C7
:1005B000A7E0B2E080E090E0F901E80FF91FE491D4
:1005C000ED9301961817C1F708C0912FD901E7E004
:1005D000F2E08D9181939150E1F71150812F90E0DD
:1005E0001F5F0196820F931F909321028093200238
:1005F00087E092E0612F0E94660B612F6C5F6C3088
:1006000041F08FEF8093010104C08FEF80930101CF
:100610006EE16093000194E189B18C7031F49150E6
:10062000D9F71092230210921D02DF91CF911F91F2
:100630000895F999FECF80E090E060E00E9490116B
:1006400080E090E00E947E1100D000D0EDB7FEB7B0
:1006500031962CE630E0ADB7BEB712963C932E93A0
:100660001197828313820E949C100F900F900F901D
:100670000F9008951F93182FF999FECF80E090E016
:100680000E947E1121E030E002C0220F331F1A9534
:10069000E2F7182F1227F999FECF80E090E0612F42
:1006A0000E94901100D000D0EDB7FEB731968AE7D6
:1006B00090E0ADB7BEB712969C938E9311971283BC
:1006C00013820E949C100F900F900F900F901F911B
:1006D0000895DF93CF9300D0CDB7DEB790918D0111
:1006E00080918E01F999FECF8A839983CE0101967C
:1006F00060EE70E042E050E00E9486112296CDBF8D
:10070000CF91DF910895DF93CF9300D0CDB7DEB7BF
:1007100090918B0180918C01F999FECF8A83998306
:10072000CE0101966EED70E042E050E00E9486112D
:100730002296CDBFCF91DF910895F999FECF8DE537
:1007400092E066EB70E048E250E00E948611089566
:10075000F999FECF81E393E06EE870E048E250E063
:100760000E9486110895F999FECF87E892E066E627
:1007700070E048E250E00E9486110895F999FECF9A
:1007800082EE90E060911C010E949011F999FECFD9
:1007900081EB92E063EE70E040E850E00E94861149
:1007A0000895F999FECF81E090E060911E010E94CA
:1007B0009011F999FECF8FE191E062E070E044E69C
:1007C00050E00E9486110895DF93CF9300D0CDB7FB
:1007D000DEB7F999FECFCE01019660EE70E042E0FF
:1007E00050E00E946E11898180938D018A818093EF
:1007F0008E012296CDBFCF91DF910895DF93CF93E5
:1008000000D0CDB7DEB7F999FECFCE0101966EEDDF
:1008100070E042E050E00E946E11898180938B016C
:100820008A8180938C012296CDBFCF91DF9108956C
:10083000F999FECF8DE592E066EB70E048E250E07A
:100840000E946E110895F999FECF81E393E06EE85E
:1008500070E048E250E00E946E110895F999FECFD1
:1008600087E892E066E670E048E250E00E946E1190
:100870000895F999FECF82EE90E00E947E11809358
:100880001C01F999FECF81EB92E063EE70E040E845
:1008900050E00E946E110895F999FECF81E090E03A
:1008A0000E947E1180931E01F999FECF8FE191E0A5
:1008B00062E070E044E650E00E946E1180911E01FB
:1008C0008093AE0108951F920F920FB60F921124DC
:1008D0002F938F939F93EF93FF939091C00020915C
:1008E000C600E091FB01EF5FEF718091FC01E8171A
:1008F00011F482E008C0892F8871E093FB01F0E0D9
:10090000E752FE4F20838093FD01FF91EF919F916D
:100910008F912F910F900FBE0F901F9018951F92DF
:100920000F920FB60F9211248F939F93EF93FF9323
:100930009091F9018091FA01981769F0E091FA011C
:10094000EF5FEF71E093FA01F0E0E754FE4F808132
:100950008093C60005C08091C1008F7D8093C10047
:10096000FF91EF919F918F910F900FBE0F901F906D
:1009700018959C011092F9011092FA011092FB0156
:100980001092FC0197FF04C082E08093C0003F7783
:100990003093C5002093C40088E98093C10086E0AD
:1009A0008093C20008959091FB018091FC019817FB
:1009B00019F420E031E012C0E091FC01EF5FEF712B
:1009C000E093FC01F0E0E752FE4F30812091FD0101
:1009D000922F80E0AC01430F511D9A01C901089587
:1009E000282F9091F9019F5F9F718091FA019817CC
:1009F000E1F3E92FF0E0E754FE4F20839093F901F3
:100A00008091C10080628093C1000895CF93DF93ED
:100A1000EC0103C021960E94F00488818823D1F75D
:100A2000DF91CF910895CF93DF93EC0102C00E9434
:100A3000F004FE01219684918823C9F7DF91CF91BC
:100A4000089581E890E00E94B9048EE091E09093CF
:100A50005E0380935D0380915A02846080935A0202
:100A600008950E94F00480E090E00895449808956D
:100A7000449A089529980895299A089545980895C3
:100A8000459A089580915A028C7F826080935A0221
:100A9000089580915A028C7F816080935A02089554
:100AA000DF93CF9300D0CDB7DEB71A82198200D082
:100AB00000D000D0EDB7FEB73196ADB7BEB71296F5
:100AC0009C938E93119782E091E093838283CE0171
:100AD0000196958384830E94C2102DB73EB72A5F8A
:100AE0003F4F2DBF892B59F089819A8120915A025D
:100AF000892B11F0246001C02B7F20935A0222968B
:100B0000CDBFCF91DF910895DF93CF9300D0CDB7C4
:100B1000DEB71A82198200D000D000D0EDB7FEB740
:100B20003196ADB7BEB712969C938E93119781EE16
:100B300092E093838283CE010196958384830E9401
:100B4000DC102DB73EB72A5F3F4F2DBF892B31F008
:100B500089819A8180938D0190938E012296CDBFD9
:100B6000CF91DF910895DF93CF9300D0CDB7DEB75B
:100B70001A82198200D000D000D0EDB7FEB73196AE
:100B8000ADB7BEB712969C938E93119788EE92E004
:100B900093838283CE010196958384830E94DC1027
:100BA0002DB73EB72A5F3F4F2DBF892B31F089818A
:100BB0009A8180938B0190938C012296CDBFCF9127
:100BC000DF910895AC01FC0101900020E9F7319715
:100BD0006E2F681B643108F063E1862F90E0019668
:100BE000880F991F936090935E0280935D02AFE53A
:100BF000B2E020E030E00BC0FA01E20FF31F808189
:100C00008C9311961C9211972F5F3F4F12962617C7
:100C100098F30895AC01FC0101900020E9F73197A9
:100C20006E2F681B643108F063E1862F90E0019617
:100C3000880F991F93609093320380933103A3E34D
:100C4000B3E020E030E00BC0FA01E20FF31F808137
:100C50008C9311961C9211972F5F3F4F1296261777
:100C600098F30895AC01FC0101900020E9F7319759
:100C70006E2F681B643108F063E1862F90E00196C7
:100C8000880F991F93609093880280938702A9E848
:100C9000B2E020E030E00BC0FA01E20FF31F8081E8
:100CA0008C9311961C9211972F5F3F4F1296261727
:100CB00098F3089500D000D000D0EDB7FEB731967C
:100CC0008FEE92E0ADB7BEB712969C938E931197BC
:100CD00080918E018283138280918D01848315829D
:100CE0000E949C108DB79EB706968DBF089500D0C8
:100CF00000D000D0EDB7FEB731968EEF92E0ADB7E1
:100D0000BEB712969C938E93119780918C0182832B
:100D1000138280918B01848315820E949C108DB771
:100D20009EB706968DBF08950F931F93CF93DF93C1
:100D300080915D0290915E029070029762E070E097
:100D40000E947F0F062F11E0CDE0D3E019C000D044
:100D500000D0EDB7FEB7D283C183E12FF0E0EE0FF4
:100D6000FF1FE35AFD4F80819181EDB7FEB7948359
:100D700083830E949C101F5F0F900F900F900F9025
:100D8000011728F7DF91CF911F910F9108950F93CD
:100D90001F93CF93DF938091310390913203907032
:100DA000029762E070E00E947F0F062F11E0C0E121
:100DB000D3E019C000D000D0EDB7FEB7D283C18315
:100DC000E12FF0E0EE0FFF1FEF5CFC4F808191817F
:100DD000EDB7FEB7948383830E949C101F5F0F9032
:100DE0000F900F900F90011728F7DF91CF911F916F
:100DF0000F910895EF92FF921F93CF93DF9380910D
:100E00008702909188029070029762E070E00E94E1
:100E10007F0FEB0111E093E1E92E93E0F92E19C069
:100E200000D000D0ADB7BEB71296FC92EE921197EB
:100E3000EE0FFF1FE957FD4F8081918114969C931F
:100E40008E9313970E949C101F5F0F900F900F902E
:100E50000F90E12FF0E0CE17DF0714F7DF91CF916D
:100E60001F91FF90EF900895CF92DF92FF920F9322
:100E70001F93CF93DF93FF2429E1C22E23E0D22ECC
:100E8000C6E1D3E02CC00F2D10E000D000D0ADB7EC
:100E9000BEB71196EDB7FEB7D282C182F801E15E0E
:100EA000FE4F808112968C93129713961C920E948B
:100EB0009C10C801019664E170E00E947F0F0F90C2
:100EC0000F900F900F90892B49F400D0EDB7FEB72B
:100ED000D283C1830E949C100F900F90F394809155
:100EE0001E01F81680F2DF91CF911F910F91FF90B4
:100EF000DF90CF900895CF92DF92FF920F931F93D0
:100F0000CF93DF93FF2434E2C32E33E0D32EC1E22C
:100F1000D3E02CC00F2D10E000D000D0ADB7BEB78D
:100F20001196EDB7FEB7D282C182F801EF54FD4FA2
:100F3000808112968C93129713961C920E949C109B
:100F4000C801019664E170E00E947F0F0F900F903E
:100F50000F900F90892B49F400D0EDB7FEB7D283E4
:100F6000C1830E949C100F900F90F39480911C01FC
:100F7000F81680F2DF91CF911F910F91FF90DF90D3
:100F8000CF9008958091110284FF06C081EB92E01A
:100F900060911C010E94E7010895CF92DF92EF92C9
:100FA000FF920F931F93CF93DF936C0165E071E085
:100FB0000E9402107C01C3EDD1E0FE013496059140
:100FC0001491C701B8010E94F00F892B31F082E023
:100FD000CB3DD80719F12696F0CF4598FE01E59054
:100FE000F490FE013296859194918130910539F407
:100FF000C8010E94F90F01968C0D9D1D09C0009734
:1010000019F480E090E004C040978730910530F4F7
:10101000F7010995459A21E030E002C020E030E078
:10102000C901DF91CF911F910F91FF90EF90DF9059
:10103000CF9008950F931F93DF93CF9300D0CDB738
:10104000DEB70E94D304182F882309F465C18D30C0
:1010500009F472C08F3740F4803250F4893049F17E
:101060008B3109F061C04DC08F3709F05DC02DC0D4
:1010700080915A0282FF15C000D000D0EDB7FEB7B4
:10108000319680E593E0ADB7BEB712969C938E93F0
:101090001197128313820E949C100F900F900F9053
:1010A0000F9080915B02E82FF0E0E45CFD4F10832D
:1010B00008C080915B02E82FF0E0E45CFD4F90E215
:1010C00090838F5F80935B022FC080915B028823A7
:1010D00059F180915A0282FF27C000D08CE493E03E
:1010E000EDB7FEB7928381830E949C1080915B02D2
:1010F000E82FF0E0E45CFD4F1082815080935B02AA
:1011000011C080915B02882379F000D088E493E0DD
:10111000ADB7BEB712969C938E9311970E949C1008
:1011200010925B020F900F9080915B028F3108F458
:10113000F3C010925B02F0C090915A02892F837025
:10114000E0915B02882309F043C0F0E0E45CFD4FCE
:10115000108210925B0292FF0BC000D085E493E0F6
:10116000EDB7FEB7928381830E949C100F900F9081
:101170008CE392E00E94CD07892B31F080915A02D6
:10118000837009F0C9C011C080913C02882369F0C6
:1011900000D081E493E0ADB7BEB712969C938E93D6
:1011A00011970E949C100F900F9000D08EE393E057
:1011B000EDB7FEB7928381830E949C1080915A0202
:1011C0000F900F9082FFA8C000D08CE393E09AC0EC
:1011D000F0E00CE312E0E00FF11F108210925B02CE
:1011E000C8016AE373E00E94F00F892BC1F500D0BB
:1011F00087E393E0EDB7FEB7928381830E949C1052
:1012000080915A020F900F9082FF0DC000D085E3AD
:1012100093E0ADB7BEB712969C938E9311970E9440
:101220009C100F900F9080915A028370813049F486
:1012300080915C0280931E018093AE011092AF01F9
:1012400006C0823021F480915C0280931C011092D0
:101250005C0280915A028C7F80935A025DC01A8290
:10126000198200D000D000D0EDB7FEB73196ADB7EF
:10127000BEB712961C930E93119787E091E093836B
:101280008283CE010196958384830E94C210EDB7BC
:10129000FEB73696EDBF892B51F1F8010190002081
:1012A000E9F7E154F24019F580915A0283708130D8
:1012B00031F4E0915C02F0E0E15EFE4F07C0823065
:1012C00039F4E0915C02F0E0EF54FD4F89818083B6
:1012D00080915C028F5F80935C0200D082E393E098
:1012E000ADB7BEB712969C938E93119707C000D0EE
:1012F0008FE293E0EDB7FEB7928381830E949C104A
:101300008CE293E0ADB7BEB712969C938E93119783
:101310000E949C100F900F902296CDBFCF91DF912D
:101320001F910F9108952998539A2DE044EF51E0B1
:1013300032E088EC90E0FA013197F1F70197D9F7A4
:1013400085B1832785B92150A1F75398299A08952B
:101350000F931F93CF93DF938C0170910202761746
:1013600008F4672F459880911C0190E0871B910934
:10137000EC01CF54DD4F9C012F5F3F4F40E050E028
:1013800015C0D901119680911C0190E08217930736
:1013900048F0F801E40FF51F899180834F5F5F4F9C
:1013A0009D0104C0459A109202020AC0E42F46171C
:1013B00040F3793008F4459A761B70930202E62FC9
:1013C0008E2FDF91CF911F910F910895FC018381A2
:1013D000813241F487EA91E09093210280932002C8
:1013E00080E10895823041F485E991E090932102F3
:1013F0008093200282E20895813041F483E891E0F5
:10140000909321028093200282E10895823249F470
:101410008FE191E0909321028093200280911E0140
:101420000895833011F58281813049F487E892E094
:101430009093210280932002809187020895823048
:1014400049F481E393E090932102809320028091FC
:1014500031030895833049F48DE592E090932102A1
:101460008093200280915D02089580E00895FC0140
:1014700080818076803201F58181813061F48091B4
:101480001C018093020281EB92E0909321028093F1
:1014900020028FEF0895823041F483E092E0909330
:1014A00021028093200281E008958A3029F483810B
:1014B0008093030280E0089580E00895CF93DF9346
:1014C000219A299A3C9A449A3D9A459A8AB18AB9B6
:1014D0005E9A0E94210580E090E00E947E1190912A
:1014E000FE01909387019091FF0190938801909164
:1014F0001D019093A301909100029093A4019091FB
:1015000001029093A501C82F80FF03C00E944C04E4
:1015100004C080911E018093AE01C1FF03C00E94F0
:101520002E0436C082E193E0909388028093870274
:101530008BE690E090938A02809389028CE690E09B
:1015400090938C0280938B0281E690E090938E02C0
:1015500080938D0285E790E09093900280938F02B4
:1015600084E790E0909392028093910285E690E068
:10157000909394028093930287E290E09093960276
:101580008093950283E790E090939802809397026E
:10159000C2FF03C00E94230438C084E193E090930B
:1015A00032038093310388E490E090933403809376
:1015B000330381E690E0909336038093350343E64E
:1015C00050E050933803409337032BE630E03093DC
:1015D0003A032093390383E590E090933C03809392
:1015E0003B0384E790E090933E0380933D0389E6BC
:1015F00090E09093400380933F03509342034093C5
:1016000041033093440320934303C3FF03C00E946C
:1016100018041CC08AE093E090935E0280935D0200
:1016200020E330E03093600220935F028EE290E08E
:10163000909362028093610230936402209363026C
:1016400086E390E09093660280936502C4FF02C037
:101650000E94FE03C5FF02C00E94E403C6FF02C051
:101660000E9439040E94DA010E949309789400D004
:1016700088E890E0EDB7FEB7928381830E949C10CA
:101680000F900F90DF91CF9108950E945E0AC0E500
:10169000D3EC0E9409020E941A08CE010197F1F7CB
:1016A000F8CFA82FB92F80E090E041E050EA609594
:1016B00030E009C02D9182279795879510F08427F7
:1016C0009527305EC8F36F5FA8F30895EADF8D9326
:1016D0009D930895CF93CFB7CF93DF93C3954B9B43
:1016E000E9F74B9B11C04B9B0FC04B9B0DC04B9B15
:1016F0000BC04B9B09C04B9B07C04B9B05C04B9B32
:1017000003C04B9B01C083C06F93C0911F02DD27B4
:10171000CA5DDD4F2F9320E400C065E04B9B03C002
:101720002F916F91DECF0F931F934F9345E55F93FA
:1017300055E53F933BE014E009B10C702EC06A956B
:10174000C9F03150D8F109B10C7001130BC00894E5
:101750002795299320E4555500F46A9569F701E02F
:1017600069B10BC0102F66E02695299320E45555EA
:1017700018F3E2CF0FEF69B10000162F455500F0C6
:10178000404066E01C700030E2F221F0000009B138
:101790000C7003C009B10C70A9F0011309C00894C2
:1017A000279568F200C06A95A9F700E069B1E5CF16
:1017B000102F66E0269528F20000ECCF11E01CBB4C
:1017C000002719C03B503195C31BD04011E01CBB12
:1017D0000881033C09F10B34F9F020911D021981B5
:1017E000110F1213EDCF4A81441F093651F10D320A
:1017F00011F0013E29F7009324023F915F914F9130
:101800001F910F912F916F91CCB3C0FD67CFDF91E6
:10181000CF91CFBFCF91189520912402222369F355
:1018200010912202112381F5343082F1309322028B
:1018300020931E0210911F023BE0311B30931F02C8
:1018400025C0009122020130FCF40AE54F7049F4F2
:101850003091000134FD1BC000930001C6E0D2E0CE
:101860001AC03091110234FD12C000931102C2E17E
:10187000D2E011C0052710E000C00BB919C0052740
:1018800010E0221F00C01DC04AE502C032ED432F08
:10189000C4E1D0E032E01AB11C605B9A0BB11AB916
:1018A0005CE020E869E420FF05270BB92795179530
:1018B00000C000001C3FF0F66695A8F7A1F720FFD6
:1018C00005270BB92795179500001C3FC0F62991F5
:1018D0003A9541F7037F10912302110F0BB9C651BE
:1018E000D04011F010931D0211E01CBB08601AB12A
:1018F000137F402F437F55E05A95F1F70BB91AB982
:101900004BB97BCFABE0B0E0E8E8FCE00C94960F7D
:101910005C014B017A01FC0117821682838181FDF3
:1019200008C06FEF7FEF08C142E050E0E40EF51E03
:1019300004C03E010894611C711CF501D380F401C0
:10194000D3FC8591D3FE81914F01882309F4F1C026
:10195000853259F4D3FC6591D3FE61914F01653214
:1019600019F0062F10E01BC085E290E02BC0002389
:1019700009F4DFC08AE593E0602F70E00E94E50F74
:10198000892B39F4033211F4106103C00C3661F471
:101990001068F401D3FC0591D3FE01914F0117FFAC
:1019A000E6CF002309F4C5C083E593E0602F70E023
:1019B0000E94E50F892B51F044E050E0E40EF51E43
:1019C0008FE390E0B5010E947010B7CF033629F085
:1019D000033779F00335F1F40BC087010E5F1F4F19
:1019E000F70180819181B5010E9470107801A5CF27
:1019F0001160F701C080D18004C090E0B5010E9461
:101A00007010F60110FD859110FF81916F01882300
:101A1000A1F78ACF043611F0093639F517FF08C04F
:101A2000F701208131814281538184E090E00AC036
:101A3000F701808191819C01442737FD4095542F07
:101A400082E090E0E80EF91E1F7E57FF08C0509517
:101A50004095309521953F4F4F4F5F4F1064CA011D
:101A6000B901A3012AE030E034C00037A9F0013702
:101A700030F40835B1F00F3609F05BC006C0053709
:101A800039F0083709F055C008C028E030E00CC034
:101A90001F7E2AE030E008C01061146220E130E0CF
:101AA00003C0146020E132E017FF08C0F701608135
:101AB00071818281938144E050E008C0F701808108
:101AC0009181BC0180E090E042E050E0E40EF51E20
:101AD000A3010E941011D82ED618012F10E006FF86
:101AE00005C08DE290E0B5010E94701004FF15C0A2
:101AF000FE01ED0DF11D8081803379F080E390E0EF
:101B0000B5010E94701002FF08C000721070C80179
:101B1000885A9F4FB5010E947010DA94F301ED0DC1
:101B2000F11D808190E0B5010E947010DD20A9F7C1
:101B300004CFF50166817781CB012B96EEE00C9402
:101B4000B20FFC0120FD08C023FD05C022FF02C02A
:101B500073836283518340830895EF92FF920F93C2
:101B60001F9344FF02C033E011C046FF02C034E0BF
:101B70000DC0DB01FC01AA0FBB1FEE1FFF1F10945D
:101B8000D1F76A0F7B1F8E1F9F1F31E0660F771FF3
:101B9000881F991F3150D1F77B018C01E20EF11C97
:101BA000011D111DA8019701B701CA011F910F91D5
:101BB000FF90EF9008950F931F93CF93DF938C01C5
:101BC000C8010E942E10EC0197FD08C00E94DD0F95
:101BD000892BB1F7CE01B8010E94F610CE01DF913A
:101BE000CF911F910F910895A0E0B0E0EAEFFDE0E2
:101BF0000C949A0FEC01C62E5A01122F0E942E103F
:101C0000AC018B3219F08D3251F41068CA9409F48A
:101C10006DC0CE010E942E10AC0197FD67C06DEF24
:101C2000D62ED1228D2D807301F54033F1F4CA9464
:101C300009F447C0CE010E942E10AC0197FD41C0AF
:101C400082E0D82A483711F0483559F480E4D82A80
:101C5000CA94B9F1CE010E942E10AC0199232CF444
:101C600030C0D6FC02C080E1D82AEE24FF248701D0
:101C7000242F2053283088F0D4FC09C02A3068F083
:101C8000D6FE05C02F7D822F8151863028F0CA01F3
:101C9000BE010E94F61012C02750C801B7014D2D99
:101CA0000E94AD0D7B018C0182E0D82ACA9461F0BC
:101CB000CE010E942E10AC0197FFDACFD1FC04C0F8
:101CC00015C0EE24FF248701D7FE08C010950095AB
:101CD000F094E094E11CF11C011D111DC501B80137
:101CE000A7012D2D0E94A10D81E001C080E0CDB79C
:101CF000DEB7EAE00C94B60FA0E0B0E0E2E8FEE068
:101D00000C94960F5C016B013A01FC01178216825C
:101D10008824DCC0812F90E00E94DD0F892B21F008
:101D2000C5010E94DB0DD2C0153249F4F601F3FC67
:101D30006591F3FE61916F01653269F415E2C501A9
:101D40000E942E1097FDCEC0181709F4BFC0B50130
:101D50000E94F610CCC06A3219F0162F00E006C0BF
:101D6000F3FC1591F3FE11916F0101E099240FC06E
:101D70000260692D70E080E090E040E20E94AD0DCD
:101D8000962EF601F3FC1591F3FE11916F01212FB0
:101D900020532A3068F301FD03C099249A9403C0AC
:101DA000992009F4A4C0183621F01C3691F4F601EC
:101DB0000AC0F601F3FC6591F3FE6191683611F0FB
:101DC000162F06C008600460F3FC1591F3FE119114
:101DD0006F01112309F48BC08AE693E0612F70E054
:101DE0000E94E50F892B09F482C0802F00FF03C0F9
:101DF000EE24FF2407C0F301E080F18022E030E010
:101E0000620E731E1E3651F4F5014681578160E063
:101E100070E0C701202F0E94A10D58C0133691F425
:101E200081FD02C099249394C5010E942E1097FD54
:101E300059C0E114F10419F0F70181937F019A94DC
:101E400099F742C0C5010E94DB0D97FD4BC01F36BC
:101E500059F1103728F4143629F1193639F527C00D
:101E6000133719F0153711F51DC0C5010E942E104A
:101E7000EC0197FD11C00E94DD0F892B29F0CE01E6
:101E8000B5010E94F61008C0E114F10419F0F70141
:101E9000C1937F019A9449F7E114F104A9F0F70185
:101EA000108212C0006203C0006101C00064C5015D
:101EB000692DA701202F0E94F40D882329F4F50134
:101EC0008381807379F413C000FF8394F501F3805C
:101ED000F601F3FC1591F3FE11916F01112309F046
:101EE00019CF05C0882019F42FEF3FEF02C0282D2D
:101EF00030E0C901CDB7DEB7EEE00C94B20F97FB2E
:101F0000092E07260AD077FD04D043D006D0002042
:101F10001AF4709561957F4F0895F6F79095819525
:101F20009F4F08952F923F924F925F926F927F92B0
:101F30008F929F92AF92BF92CF92DF92EF92FF92D9
:101F40000F931F93CF93DF93CDB7DEB7CA1BDB0B85
:101F50000FB6F894DEBF0FBECDBF09942A8839882A
:101F600048885F846E847D848C849B84AA84B98431
:101F7000C884DF80EE80FD800C811B81AA81B9813D
:101F8000CE0FD11D0FB6F894DEBF0FBECDBFED0151
:101F90000895AA1BBB1B51E107C0AA1FBB1FA617B0
:101FA000B70710F0A61BB70B881F991F5A95A9F702
:101FB00080959095BC01CD0108959111BFC18032EB
:101FC00019F089508550D0F70895FC010590061648
:101FD00021F00020D9F7C00108953197CF0108956D
:101FE000FB01DC018D91059080190110D9F3990B4B
:101FF0000895FC0105900020E9F7809590958E0FDB
:102000009F1F089544E052E00E9407100895FA01CE
:10201000A191B081009719F41097E1F0CD01DC0196
:10202000CD010D90002011F4C00113C0FB012191DE
:10203000222319F02015D9F7F3CFFB0121912015A8
:1020400019F41E92119606C02223C1F70D900020AC
:10205000A1F7D001FA01A193B0830895CF93DF9344
:10206000EC014B8140FF1AC046FF0AC04F7B4B83F7
:102070008E819F8101969F838E838A81282F2BC01A
:1020800042FF13C0E881F9818081282F332727FD83
:1020900030952115310529F440624B832FEF3FEF36
:1020A0001BC03196F983E88311C0EA85FB85CE0118
:1020B00009959C0197FF0AC09B812F5F3F4F11F04C
:1020C00080E201C080E1892B8B83E8CF8E819F81E4
:1020D00001969F838E8330E0C901DF91CF910895EF
:1020E0000F931F93CF93DF938C01EB018B8181FFC3
:1020F0001BC082FF0DC02E813F818C819D812817DE
:10210000390764F4E881F9810193F983E88306C013
:10211000E885F985802F0995892B31F48E819F817F
:1021200001969F838E8302C00FEF1FEFC801DF91DE
:10213000CF911F910F910895A0E0B0E0E2EAF0E1A5
:102140000C94A20FFE01359661917191A0915D03EF
:10215000B0915E0313968C911397886013968C93BD
:1021600080915D0390915E03AF010E94820CE0912B
:102170005D03F0915E032381277F23832096E2E0B5
:102180000C94BE0FAEE0B0E0E8ECF0E10C94A20FCE
:1021900085E08C838B899C899A8389839E01295E43
:1021A0003F4FCE0101966D897E89A9010E947C0E68
:1021B0002E96E2E00C94BE0FAEE0B0E0E2EEF0E16D
:1021C0000C94A20F8DE08C838B899C899A838983E0
:1021D0009E01295E3F4FCE0101966D897E89A9013E
:1021E0000E947C0E2E96E2E00C94BE0F9C01FB0137
:1021F000838180FF11C086FD0FC09FEF2F3F3907FD
:1022000059F0228380648F7D838386819781019733
:102210009783868330E002C02FEF3FEFC901089516
:10222000FA01AA27283051F1203181F1E8946F9307
:102230006E7F6E5F7F4F8F4F9F4FAF4FB1E03ED0AD
:10224000B4E03CD0670F781F891F9A1FA11D680F4B
:10225000791F8A1F911DA11D6A0F711D811D911D7E
:10226000A11D20D009F468943F912AE0269F1124F3
:102270003019305D3193DEF6CF010895462F477057
:10228000405D4193B3E00FD0C9F7F6CF462F4F70B2
:10229000405D4A3318F0495D31FD4052419302D010
:1022A000A9F7EACFB4E0A6959795879577956795B6
:1022B000BA95C9F700976105710508959B01AC01B6
:1022C0000A2E06945795479537952795BA95C9F7DD
:1022D000620F731F841F951FA01D0895DC01CB01A1
:1022E000FC01F999FECF06C0F2BDE1BDF89A319626
:1022F00000B40D9241505040B8F70895F999FECFBF
:1023000092BD81BDF89A992780B50895DC01CB0173
:1023100003C02D910E94911141505040D0F7089573
:10232000262FF999FECF1FBA92BD81BD20BD0FB6F1
:10233000F894FA9AF99A0FBE01960895992788277A
:062340000895F894FFCFA0
:102346005AFF2564002000307825303278000000DE
:1023560000020000000031050000000080031606A0
:1023660000FF0901A101150026FF007508958009E7
:1023760000B20201C00000000000000000000000E2
:102386000000000000000000000000000000000047
:102396000000000000000000000000000000000037
:1023A6000000000000000000000000000000000027
:1023B6000000000000000000000000000000000017
:1023C6000000001201100100000008C016DF050021
:1023D6000101020301090222000101008032090401
:1023E6000000010000000009210101000122000097
:0823F6000705810308006400E3
:00000001FF
