:103800000C945D1C0C94951C0C947A1C0C947A1CE2
:103810000C947A1C0C947A1C0C947A1C0C947A1CD0
:103820000C947A1C0C947A1C0C947A1C0C947A1CC0
:103830000C947A1C0C947A1C0C947A1C0C947A1CB0
:103840000C947A1C0C947A1C0C947A1C0C947A1CA0
:103850000C947A1C0C947A1C0C947A1C0C947A1C90
:103860000C947A1C0C947A1C040309041C03770042
:10387000770077002E00660069007300630068001F
:103880006C002E00640065000E03550053004200DA
:1038900061007300700012011001FF000008C016E3
:1038A000DC05020101020001090212000101008091
:1038B0003209040000000000000011241FBECFEFF9
:1038C000D4E0DEBFCDBF11E0A0E0B1E0E0EDFFE36A
:1038D00002C005900D92A630B107D9F711E0A6E01D
:1038E000B1E001C01D92AD33B107E1F70E94A01D08
:1038F0000C94E71F0C94001CA82FB92F80E090E0D7
:1039000041E050EA609530E009C02D9182279795FB
:10391000879510F084279527305EC8F36F5FA8F372
:103920000895EADF8D939D930895CF93CFB7CF93FA
:10393000DF93C3954B9BE9F74B9B11C04B9B0FC08B
:103940004B9B0DC04B9B0BC04B9B09C04B9B07C0B7
:103950004B9B05C04B9B03C04B9B01C081C06F9329
:10396000C0912001DD27C95DDE4F2F9320E400C008
:1039700065E04B9B03C02F916F91DECF0F931F9398
:103980004F9345E55F9355E53F933BE014E009B164
:103990000C702EC06A95C9F03150D8F109B10C7085
:1039A00001130BC008942795299320E4555500F482
:1039B0006A9569F701E069B10BC0102F66E02695A2
:1039C000299320E4555518F3E2CF0FEF69B10000B9
:1039D000162F455500F0404066E01C700030E2F2C2
:1039E00021F0000009B10C7003C009B10C70A9F0FE
:1039F000011309C00894279568F200C06A95A9F7D9
:103A000000E069B1E5CF102F66E0269528F20000AE
:103A1000ECCF11E01CBB002717C03B503195C31BF6
:103A2000D04011E01CBB0881033CF9F00B34E9F0F5
:103A300020911E011981110F1213EDCF093651F19A
:103A40000D3211F0013E39F7009325013F915F914E
:103A50004F911F910F912F916F91CCB3C0FD69CF02
:103A6000DF91CF91CFBFCF911895209125012223CF
:103A700069F310912301112329F534302AF1309391
:103A8000230120931F01109120013BE0311B309353
:103A900020011AC0009123010130A4F40AE53091FD
:103AA000000134FD12C000930001C3E1D1E011C058
:103AB000052710E000C00BB919C0052710E0221F30
:103AC00000C01DC04AE502C032ED432FC4E1D0E082
:103AD00032E01AB11C605B9A0BB11AB95CE020E8C5
:103AE00069E420FF05270BB92795179500C0000052
:103AF0001C3FF0F66695A8F7A1F720FF05270BB944
:103B00002795179500001C3FC0F629913A9541F77B
:103B1000037F10912401110F0BB9C651D04011F051
:103B200010931E0111E01CBB08601AB1137F402FD7
:103B3000437F55E05A95F1F70BB91AB94BB986CFC7
:103B4000CFEFD4E0DEBFCDBF88E10FB6F89480930D
:103B50006000109260000FBE3C9A44983D9A4598D0
:103B6000219A299891E095BF82E085BF5E9A449A98
:103B700014BE95BF85BF4E9909C2809169008360CC
:103B800080936900E89A539A20E005C0A89588E8D8
:103B900093E10197F1F72150C9F75398789499244C
:103BA00000E04CE1C42E41E0D42E38EA632E38E325
:103BB000732E26E9422E28E3522E96E0292E91E01C
:103BC000392E88EFA82E8FEFB82EAC0CBD1C90912B
:103BD0002301935097FD4EC180912001C3E3D1E0B2
:103BE000C81BD10980911F018D3209F0C5C09830E2
:103BF00009F03EC183EC809313018AE580930001B4
:103C000010920A01888180762981882309F447C0AF
:103C100030922201209221012330F9F4FB80EC81C3
:103C2000EE2E8A81803331F4E370FF27EE5FFE4F82
:103C3000E0810FC0803A29F4D7010E94D31FE02D04
:103C400008C0803C29F48D81D701082E0E94DB1F1B
:103C5000E0E0E093090124E085C0253011F421E083
:103C600081C0822F8450863098F48A819B81909302
:103C70000D0180930C01293081F08E8180930E011B
:103C80008D81827080930F01209310012FEF63C00C
:103C9000223019F481E080930B0120E063C09A8107
:103CA00010921C01222321F410921D0122E04CC02D
:103CB000253019F49093240146C02630A9F58B8154
:103CC000813029F4509222014092210106C08230B5
:103CD00031F4709222016092210122E121C08330EF
:103CE000F1F4992341F488E698E3909322018093BC
:103CF000210124E015C0913041F48CE698E39093C3
:103D00002201809321012CE10BC0923041F488E81C
:103D100098E390932201809321012EE001C020E0DE
:103D200080E480930A0115C0283021F421E086E266
:103D300091E00BC0293019F49093260104C02A3079
:103D400011F421E001C020E0C6019093220180938C
:103D500021012F3F39F4888187FD2E8180E88093EF
:103D60000A0107C08F81882321F48E81821708F40D
:103D7000282F209301017CC080910A0187FF78C021
:103D800080910E01692F891708F4682F861B809394
:103D90000E0110E0882309F411E0809110018730B2
:103DA00010F090E017C0A0910F0140910C015091CC
:103DB0000D0170E04CC08991A0910C01B0910D01F2
:103DC0001196B0930D01A0930C011197082E0E943B
:103DD000DB1F9F5F961779F741C0CA018F779070FC
:103DE000892B51F4F89483E0FA0180935700E89509
:103DF000789407B600FCFDCF7E5FF89481E02991AE
:103E000039910901FA0180935700E89511247894BB
:103E10009A012E5F3F4FC9018F779070892B31F047
:103E20001123A1F0761790F0AA2381F0F89485E091
:103E3000FA0180935700E895789407B600FCFDCF0F
:103E4000F89481E180935700E8957894A90176175A
:103E500008F4C3CF50930D0140930C011F3F21F490
:103E60008EE18093000104C0112311F01092010132
:103E7000109223018091000184FF74C080910101A0
:103E80008F3F09F46FC0182F893008F018E0811BAC
:103E9000809301018091130198E889278093130191
:103EA000112309F44DC080910A0187FF27C080913A
:103EB0000E01811708F4182F811B80930E01409189
:103EC000100120910C0130910D01F901E50190E004
:103ED0000CC0473028F0DF010E94D31F802D01C0A5
:103EE0008491888321969F5F3196911791F7210FD6
:103EF000311D30930D0120930C0120C02091210130
:103F00003091220186FF09C0912FF901D5018491DA
:103F10008D9331969150D9F707C0912FD901F501B2
:103F20008D9181939150E1F7C90101961150810F54
:103F3000911D1F5F9093220180932101193060F43D
:103F4000612FC5010E94911C612F6C5F6C3041F0A4
:103F50008FEF8093010104C08FEF809301016EE128
:103F60006093000194E189B18C7031F49150D9F7DC
:103F70001092240110921E0180910B01882321F0E0
:103F80009A9411F4015011F04E9B21CE1BB8F89475
:103F90001DBA1092690081E085BF15BEE091110144
:103FA000F09112010995F999FECFB2BDA1BDF89A21
:103FB000119600B40895F999FECFB2BDA1BD00BC21
:103FC00011960FB6F894FA9AF99A0FBE0895FFCF9A
:063FD0005AFF1E940600DA
:0400000300003800C1
:00000001FF
