:107800005CC000008FC0000073C0000071C00000A9
:107810006FC000006DC000006BC0000069C00000B8
:1078200067C0000065C0000063C0000061C00000C8
:107830005FC000005DC000005BC0000059C00000D8
:1078400057C0000055C0000053C0000051C00000E8
:107850004FC000004DC000004BC0000049C00000F8
:1078600047C0000045C00000040309041C03770062
:10787000770077002E0066006900730063006800DF
:107880006C002E00640065000E035500530042009A
:1078900061007300700012011001FF000008C016A3
:1078A000DC05020101020001090212000101008051
:1078B0003209040000000000000011241FBECFEFB9
:1078C000D8E0DEBFCDBF11E0A0E0B1E0ECEDFFE716
:1078D00002C005900D92A630B107D9F711E0A6E0DD
:1078E000B1E001C01D92AE33B107E1F726D174C3F8
:1078F00087CFA82FB92F80E090E041E050EA609553
:1079000030E009C02D9182279795879510F0842744
:107910009527305EC8F36F5FA8F30895EADF8D9373
:107920009D930895CF93CFB7CF93DF93C3954B9B90
:10793000E9F74B9B11C04B9B0FC04B9B0DC04B9B62
:107940000BC04B9B09C04B9B07C04B9B05C04B9B7F
:1079500003C04B9B01C081C06F93C0912101DD2703
:10796000C85DDE4F2F9320E400C065E04B9B03C051
:107970002F916F91DECF0F931F934F9345E55F9348
:1079800055E53F933BE014E009B10C702EC06A95B9
:10799000C9F03150D8F109B10C7001130BC0089433
:1079A0002795299320E4555500F46A9569F701E07D
:1079B00069B10BC0102F66E02695299320E4555538
:1079C00018F3E2CF0FEF69B10000162F455500F014
:1079D000404066E01C700030E2F221F0000009B186
:1079E0000C7003C009B10C70A9F0011309C0089410
:1079F000279568F200C06A95A9F700E069B1E5CF64
:107A0000102F66E0269528F20000ECCF11E01CBB99
:107A1000002717C03B503195C31BD04011E01CBB61
:107A20000881033CF9F00B34E9F020911F01198122
:107A3000110F1213EDCF093651F10D3211F0013E45
:107A400039F7009326013F915F914F911F910F915C
:107A50002F916F91CCB3C0FD69CFDF91CF91CFBF94
:107A6000CF91189520912601222369F310912401CA
:107A7000112329F534302AF1309324012093200179
:107A8000109121013BE0311B309321011AC000917C
:107A900024010130A4F40AE53091000134FD12C044
:107AA00000930001C4E1D1E011C0052710E000C03F
:107AB0000BB919C0052710E0221F00C01DC04AE500
:107AC00002C032ED432FC4E1D0E032E01AB11C60B5
:107AD0005B9A0BB11AB95CE020E869E420FF052746
:107AE0000BB92795179500C000001C3FF0F666956E
:107AF000A8F7A1F720FF05270BB9279517950000D8
:107B00001C3FC0F629913A9541F7037F109125015A
:107B1000110F0BB9C651D04011F010931F0111E0A5
:107B20001CBB08601AB1137F402F437F55E05A9564
:107B3000F1F70BB91AB94BB986CF5E9A04B603FEBA
:107B400003C081E08093060104B600FE03C082E01A
:107B50008093060114BE88E10FB6F894809360000C
:107B6000109260000FBE81E085BF82E085BF8091EA
:107B70000601823019F44E9B04C00BC2813009F01B
:107B800008C280916900826080936900E89A539AE4
:107B900020E005C0A89588E893E10197F1F721500E
:107BA000C9F753987894CC24DD2490912401935004
:107BB00097FD5EC1809121010CE010E0081B1109C6
:107BC000085D1E4F809120018D3209F0DDC0983094
:107BD00009F04CC183EC809314018AE58093000185
:107BE00010920B01D8013C91832F807611962C9135
:107BF0001197882309F451C087E091E09093230105
:107C0000809322012330F9F413969C9113971496D4
:107C10008C91149712962C91203339F48370E82FAD
:107C2000F0E0EE5FFE4F80810AC0203A11F4BED131
:107C300006C0203C19F4F8016581C0D180E0809332
:107C40000A0194E093C0253011F491E08FC0822F97
:107C500084508630D8F4D80112968D919C91139758
:107C600090930E0180930D012930A9F016969C91F6
:107C7000169790930F0115968C9182708093100146
:107C80002093110137FD6DC02FEF6CC0223019F425
:107C900081E080930C0190E069C0F801828110922C
:107CA0001D01222331F410921E012DE131E092E0FA
:107CB00053C0253019F4809325014BC02630C9F5F7
:107CC000D80113968C91813019F486E998E704C0A5
:107CD000823041F488EA98E790932301809322014F
:107CE00092E123C0833001F5F8018281882341F4B9
:107CF00088E698E7909323018093220194E015C0D1
:107D0000813041F48CE698E790932301809322011F
:107D10009CE10BC0823041F488E898E790932301FE
:107D2000809322019EE001C090E080E480930B01EB
:107D30001DC0283019F427E231E009C0293019F4B8
:107D40008093270106C02A3021F42DE131E091E033
:107D500003C02DE131E090E0309323012093220114
:107D600005C0292F80E880930B010BC0D80117961E
:107D70008C911797882321F416962C91291708F0D7
:107D8000292F2093010172C080910B0187FF6EC0E3
:107D900080910F01F92E891708F4F82E8F1980931E
:107DA0000F01EE24882311F4EE24E3948091110155
:107DB000873010F430E053C0E8010CC080910D0111
:107DC00090910E01019690930E0180930D01019701
:107DD0006991F4D0FE01E01BEF1580F343C0E09100
:107DE0000D01F0910E01CF018F779070892B49F42E
:107DF000F89483E080935700E895789407B600FCE8
:107E0000FDCF3E5FF894D8018D919D918D0121E0C9
:107E10000C0120935700E89511247894CF01029625
:107E200090930E0180930D018F779070892B41F014
:107E3000EE20A9F03F1598F080911001882379F089
:107E4000F89485E080935700E895789407B600FC95
:107E5000FDCFF89481E180935700E89578943F1521
:107E600008F4BDCFEE2011F0109201011092240110
:107E70008091000184FF71C0809101018F3F09F45E
:107E80006CC0182F893008F018E0811B8093010125
:107E90008091140198E8892780931401112309F433
:107EA0004AC080910B0187FF2AC080910F01811782
:107EB00008F4182F811B80930F01C5E1D1E017C092
:107EC00080911101E0910D01F0910E01873018F0C1
:107ED000CF016CD001C084918883219680910D01DF
:107EE00090910E01019690930E0180930D01812FC8
:107EF00090E08B5E9E4FC817D90711F71AC0E0912A
:107F00002201F091230186FF09C0912FA5E1B1E084
:107F100084918D9331969150D9F707C0912FA5E1A7
:107F2000B1E081918D939150E1F7F0932301E093BB
:107F30002201193060F485E191E0612FEFDC612FBF
:107F40006C5F6C3041F08FEF8093010104C08FEFC4
:107F5000809301016EE16093000194E189B18C701E
:107F600031F49150D9F71092250110921F018091A0
:107F70000C01882321F0CA9411F4DA9451F0809115
:107F80000601823019F44E9B10CE03C0813009F4F3
:107F90000CCE1BB8F8941DBA1092690081E085BF21
:107FA00015BEE0911201F09113010995F999FECFE8
:107FB00092BD81BDF89A992780B50895262FF99929
:107FC000FECF1FBA92BD81BD20BD0FB6F894FA9ABC
:0C7FD000F99A0FBE01960895F894FFCFB7
:067FDC005AFF1E950F0084
:040000030000780081
:00000001FF
